{
  "contractName": "Voting",
  "abi": [
    {
      "anonymous": false,
      "inputs": [
        {
          "indexed": false,
          "internalType": "bool",
          "name": "success",
          "type": "bool"
        }
      ],
      "name": "VotingResult",
      "type": "event"
    },
    {
      "inputs": [],
      "name": "voteIdActive",
      "outputs": [
        {
          "internalType": "uint256",
          "name": "",
          "type": "uint256"
        }
      ],
      "stateMutability": "view",
      "type": "function",
      "constant": true
    },
    {
      "inputs": [
        {
          "internalType": "uint256",
          "name": "",
          "type": "uint256"
        }
      ],
      "name": "voters",
      "outputs": [
        {
          "internalType": "uint256",
          "name": "voteId",
          "type": "uint256"
        },
        {
          "internalType": "uint256",
          "name": "userId",
          "type": "uint256"
        },
        {
          "internalType": "uint256",
          "name": "candidateId",
          "type": "uint256"
        }
      ],
      "stateMutability": "view",
      "type": "function",
      "constant": true
    },
    {
      "inputs": [
        {
          "internalType": "uint256",
          "name": "",
          "type": "uint256"
        }
      ],
      "name": "votings",
      "outputs": [
        {
          "internalType": "uint256",
          "name": "voteId",
          "type": "uint256"
        },
        {
          "internalType": "uint256",
          "name": "candidateId",
          "type": "uint256"
        },
        {
          "internalType": "string",
          "name": "candidateName",
          "type": "string"
        },
        {
          "internalType": "int256",
          "name": "voteTotal",
          "type": "int256"
        }
      ],
      "stateMutability": "view",
      "type": "function",
      "constant": true
    },
    {
      "inputs": [
        {
          "internalType": "uint256",
          "name": "_voteId",
          "type": "uint256"
        },
        {
          "internalType": "uint256",
          "name": "_candidateId",
          "type": "uint256"
        },
        {
          "internalType": "string",
          "name": "_candidateName",
          "type": "string"
        }
      ],
      "name": "initVoting",
      "outputs": [],
      "stateMutability": "nonpayable",
      "type": "function"
    },
    {
      "inputs": [
        {
          "internalType": "uint256",
          "name": "_userId",
          "type": "uint256"
        },
        {
          "internalType": "uint256",
          "name": "_candidateId",
          "type": "uint256"
        }
      ],
      "name": "voteCandidate",
      "outputs": [],
      "stateMutability": "nonpayable",
      "type": "function"
    },
    {
      "inputs": [
        {
          "internalType": "uint256",
          "name": "_voteId",
          "type": "uint256"
        }
      ],
      "name": "getVoting",
      "outputs": [
        {
          "components": [
            {
              "internalType": "uint256",
              "name": "voteId",
              "type": "uint256"
            },
            {
              "internalType": "uint256",
              "name": "candidateId",
              "type": "uint256"
            },
            {
              "internalType": "string",
              "name": "candidateName",
              "type": "string"
            },
            {
              "internalType": "int256",
              "name": "voteTotal",
              "type": "int256"
            }
          ],
          "internalType": "struct Voting.VotingItem[]",
          "name": "",
          "type": "tuple[]"
        }
      ],
      "stateMutability": "view",
      "type": "function",
      "constant": true
    }
  ],
  "bytecode": "0x608060405234801561001057600080fd5b50611327806100206000396000f3fe608060405234801561001057600080fd5b50600436106100625760003560e01c80632c6e3818146100675780633afc7282146100835780634fb835d5146100b3578063a598d03c146100d1578063da58c7d914610104578063eb1e627014610136575b600080fd5b610081600480360381019061007c9190610b1f565b610152565b005b61009d60048036038101906100989190610b8e565b6102c3565b6040516100aa9190610d87565b60405180910390f35b6100bb610538565b6040516100c89190610db8565b60405180910390f35b6100eb60048036038101906100e69190610b8e565b61053e565b6040516100fb9493929190610e2c565b60405180910390f35b61011e60048036038101906101199190610b8e565b610606565b60405161012d93929190610e78565b60405180910390f35b610150600480360381019061014b9190610eaf565b610640565b005b6000808460008190555060005b6001805490508110156101eb57600181815481106101805761017f610eef565b5b9060005260206000209060040201600001546000541480156101c65750600181815481106101b1576101b0610eef565b5b90600052602060002090600402016001015485145b156101d85760019150600192506101eb565b80806101e390610f4d565b91505061015f565b506000151581151503610284576000604051806080016040528060005481526020018681526020018581526020016000815250905060018190806001815401808255809150506001900390600052602060002090600402016000909190919091506000820151816000015560208201518160010155604082015181600201908161027591906111a1565b50606082015181600301555050505b7feea73f891f5517c6e64acd2a546dc62b9d9ade49ce474569bd46579f10241ff782156040516102b4919061128e565b60405180910390a15050505050565b6060600060018054905067ffffffffffffffff8111156102e6576102e56109f4565b5b60405190808252806020026020018201604052801561031f57816020015b61030c610967565b8152602001906001900390816103045790505b5090506000805b60018054905081101561047c57846001828154811061034857610347610eef565b5b90600052602060002090600402016000015403610469576001818154811061037357610372610eef565b5b906000526020600020906004020160405180608001604052908160008201548152602001600182015481526020016002820180546103b090610fc4565b80601f01602080910402602001604051908101604052809291908181526020018280546103dc90610fc4565b80156104295780601f106103fe57610100808354040283529160200191610429565b820191906000526020600020905b81548152906001019060200180831161040c57829003601f168201915b5050505050815260200160038201548152505083838151811061044f5761044e610eef565b5b6020026020010181905250818061046590610f4d565b9250505b808061047490610f4d565b915050610326565b5060008167ffffffffffffffff811115610499576104986109f4565b5b6040519080825280602002602001820160405280156104d257816020015b6104bf610967565b8152602001906001900390816104b75790505b50905060005b8281101561052c578381815181106104f3576104f2610eef565b5b602002602001015182828151811061050e5761050d610eef565b5b6020026020010181905250808061052490610f4d565b9150506104d8565b50809350505050919050565b60005481565b6001818154811061054e57600080fd5b906000526020600020906004020160009150905080600001549080600101549080600201805461057d90610fc4565b80601f01602080910402602001604051908101604052809291908181526020018280546105a990610fc4565b80156105f65780601f106105cb576101008083540402835291602001916105f6565b820191906000526020600020905b8154815290600101906020018083116105d957829003601f168201915b5050505050908060030154905084565b6002818154811061061657600080fd5b90600052602060002090600302016000915090508060000154908060010154908060020154905083565b6000806000805b6001805490508110156106cf576001818154811061066857610667610eef565b5b9060005260206000209060040201600001546000541480156106ae57506001818154811061069957610698610eef565b5b90600052602060002090600402016001015485145b156106bc57600191506106cf565b80806106c790610f4d565b915050610647565b50600015158115150361072057600192507feea73f891f5517c6e64acd2a546dc62b9d9ade49ce474569bd46579f10241ff78315604051610710919061128e565b60405180910390a1505050610963565b60005b6002805490508110156107af576002818154811061074457610743610eef565b5b90600052602060002090600302016000015460005414801561078a5750856002828154811061077657610775610eef565b5b906000526020600020906003020160010154145b1561079c5760019250600193506107af565b80806107a790610f4d565b915050610723565b5081156107f6577feea73f891f5517c6e64acd2a546dc62b9d9ade49ce474569bd46579f10241ff783156040516107e6919061128e565b60405180910390a1505050610963565b6000604051806060016040528060005481526020018781526020018681525090506002819080600181540180825580915050600190039060005260206000209060030201600090919091909150600082015181600001556020820151816001015560408201518160020155505060005b600180549050811015610925576001818154811061088757610886610eef565b5b9060005260206000209060040201600001546000541480156108cd575085600182815481106108b9576108b8610eef565b5b906000526020600020906004020160010154145b1561091257600181815481106108e6576108e5610eef565b5b90600052602060002090600402016003016000815480929190610908906112a9565b9190505550610925565b808061091d90610f4d565b915050610866565b507feea73f891f5517c6e64acd2a546dc62b9d9ade49ce474569bd46579f10241ff78415604051610956919061128e565b60405180910390a1505050505b5050565b6040518060800160405280600081526020016000815260200160608152602001600081525090565b6000604051905090565b600080fd5b600080fd5b6000819050919050565b6109b6816109a3565b81146109c157600080fd5b50565b6000813590506109d3816109ad565b92915050565b600080fd5b600080fd5b6000601f19601f8301169050919050565b7f4e487b7100000000000000000000000000000000000000000000000000000000600052604160045260246000fd5b610a2c826109e3565b810181811067ffffffffffffffff82111715610a4b57610a4a6109f4565b5b80604052505050565b6000610a5e61098f565b9050610a6a8282610a23565b919050565b600067ffffffffffffffff821115610a8a57610a896109f4565b5b610a93826109e3565b9050602081019050919050565b82818337600083830152505050565b6000610ac2610abd84610a6f565b610a54565b905082815260208101848484011115610ade57610add6109de565b5b610ae9848285610aa0565b509392505050565b600082601f830112610b0657610b056109d9565b5b8135610b16848260208601610aaf565b91505092915050565b600080600060608486031215610b3857610b37610999565b5b6000610b46868287016109c4565b9350506020610b57868287016109c4565b925050604084013567ffffffffffffffff811115610b7857610b7761099e565b5b610b8486828701610af1565b9150509250925092565b600060208284031215610ba457610ba3610999565b5b6000610bb2848285016109c4565b91505092915050565b600081519050919050565b600082825260208201905092915050565b6000819050602082019050919050565b610bf0816109a3565b82525050565b600081519050919050565b600082825260208201905092915050565b60005b83811015610c30578082015181840152602081019050610c15565b60008484015250505050565b6000610c4782610bf6565b610c518185610c01565b9350610c61818560208601610c12565b610c6a816109e3565b840191505092915050565b6000819050919050565b610c8881610c75565b82525050565b6000608083016000830151610ca66000860182610be7565b506020830151610cb96020860182610be7565b5060408301518482036040860152610cd18282610c3c565b9150506060830151610ce66060860182610c7f565b508091505092915050565b6000610cfd8383610c8e565b905092915050565b6000602082019050919050565b6000610d1d82610bbb565b610d278185610bc6565b935083602082028501610d3985610bd7565b8060005b85811015610d755784840389528151610d568582610cf1565b9450610d6183610d05565b925060208a01995050600181019050610d3d565b50829750879550505050505092915050565b60006020820190508181036000830152610da18184610d12565b905092915050565b610db2816109a3565b82525050565b6000602082019050610dcd6000830184610da9565b92915050565b600082825260208201905092915050565b6000610def82610bf6565b610df98185610dd3565b9350610e09818560208601610c12565b610e12816109e3565b840191505092915050565b610e2681610c75565b82525050565b6000608082019050610e416000830187610da9565b610e4e6020830186610da9565b8181036040830152610e608185610de4565b9050610e6f6060830184610e1d565b95945050505050565b6000606082019050610e8d6000830186610da9565b610e9a6020830185610da9565b610ea76040830184610da9565b949350505050565b60008060408385031215610ec657610ec5610999565b5b6000610ed4858286016109c4565b9250506020610ee5858286016109c4565b9150509250929050565b7f4e487b7100000000000000000000000000000000000000000000000000000000600052603260045260246000fd5b7f4e487b7100000000000000000000000000000000000000000000000000000000600052601160045260246000fd5b6000610f58826109a3565b91507fffffffffffffffffffffffffffffffffffffffffffffffffffffffffffffffff8203610f8a57610f89610f1e565b5b600182019050919050565b7f4e487b7100000000000000000000000000000000000000000000000000000000600052602260045260246000fd5b60006002820490506001821680610fdc57607f821691505b602082108103610fef57610fee610f95565b5b50919050565b60008190508160005260206000209050919050565b60006020601f8301049050919050565b600082821b905092915050565b6000600883026110577fffffffffffffffffffffffffffffffffffffffffffffffffffffffffffffffff8261101a565b611061868361101a565b95508019841693508086168417925050509392505050565b6000819050919050565b600061109e611099611094846109a3565b611079565b6109a3565b9050919050565b6000819050919050565b6110b883611083565b6110cc6110c4826110a5565b848454611027565b825550505050565b600090565b6110e16110d4565b6110ec8184846110af565b505050565b5b81811015611110576111056000826110d9565b6001810190506110f2565b5050565b601f8211156111555761112681610ff5565b61112f8461100a565b8101602085101561113e578190505b61115261114a8561100a565b8301826110f1565b50505b505050565b600082821c905092915050565b60006111786000198460080261115a565b1980831691505092915050565b60006111918383611167565b9150826002028217905092915050565b6111aa82610bf6565b67ffffffffffffffff8111156111c3576111c26109f4565b5b6111cd8254610fc4565b6111d8828285611114565b600060209050601f83116001811461120b57600084156111f9578287015190505b6112038582611185565b86555061126b565b601f19841661121986610ff5565b60005b828110156112415784890151825560018201915060208501945060208101905061121c565b8683101561125e578489015161125a601f891682611167565b8355505b6001600288020188555050505b505050505050565b60008115159050919050565b61128881611273565b82525050565b60006020820190506112a3600083018461127f565b92915050565b60006112b482610c75565b91507f7fffffffffffffffffffffffffffffffffffffffffffffffffffffffffffffff82036112e6576112e5610f1e565b5b60018201905091905056fea26469706673582212206fe2dca26f3c3ebfef9d9598cbfdfa454d545184f88104cb9eb3fc72baec0aff64736f6c63430008130033",
  "immutableReferences": {},
  "source": "pragma solidity ^0.8.19;\ncontract Voting {\n  uint public voteIdActive;\n  struct VotingItem {\n    uint voteId;\n    uint candidateId;\n    string candidateName;\n    int voteTotal;\n  }\n  VotingItem[] public votings;\n  struct VoterItem {\n    uint voteId;\n    uint userId;\n    uint candidateId;\n  }\n  VoterItem[] public voters;\n\n  event VotingResult(bool success);\n\n  // init voting app (activated vote id and create candidate)\n  function initVoting(uint _voteId, uint _candidateId, string memory _candidateName) public {\n    bool isError = false;\n    bool candidateIdExixts = false;\n    voteIdActive = _voteId;\n    for (uint256 i = 0; i < votings.length; i++) {\n      if(voteIdActive == votings[i].voteId && _candidateId == votings[i].candidateId){\n        candidateIdExixts = true;\n        isError = true;\n        break;\n      }\n    }\n    if(candidateIdExixts == false){\n      VotingItem memory newVotingCandidate = VotingItem(voteIdActive, _candidateId, _candidateName, 0);\n      votings.push(newVotingCandidate);\n    }\n    emit VotingResult(!isError);\n  }\n\n  function voteCandidate(uint _userId, uint _candidateId) public {\n    bool isError = false;\n    bool voterExists = false;\n    bool candidateIdExixts = false;\n\n    // checking candidate id\n    for (uint256 i = 0; i < votings.length; i++) {\n      if(voteIdActive == votings[i].voteId && _candidateId == votings[i].candidateId){\n        candidateIdExixts = true;\n        break;\n      }\n    }\n    if(candidateIdExixts == false){\n      isError = true;\n      emit VotingResult(!isError);\n      return;\n    }\n\n    // checking is user already voted\n    for (uint256 i = 0; i < voters.length; i++) {\n      if(voteIdActive == voters[i].voteId && voters[i].userId == _userId){\n        voterExists = true;\n        isError = true;\n        break;\n      }\n    }\n    if(voterExists){\n      emit VotingResult(!isError);\n      return;\n    }\n    VoterItem memory newVoter = VoterItem(voteIdActive, _userId, _candidateId);\n    voters.push(newVoter);\n\n    // voting processing\n    for (uint256 i = 0; i < votings.length; i++) {\n      if(voteIdActive == votings[i].voteId && votings[i].candidateId == _candidateId){\n        votings[i].voteTotal ++;\n        break;\n      }\n    }\n    emit VotingResult(!isError);\n  }\n\n  \n  function getVoting(uint _voteId) public view returns (VotingItem[] memory) {\n    VotingItem[] memory filteredVotings = new VotingItem[](votings.length);\n    uint256 filteredVotingsCount = 0;\n    // filtering vote data\n    for (uint256 i = 0; i < votings.length; i++) {\n        if (votings[i].voteId == _voteId) {\n            filteredVotings[filteredVotingsCount] = votings[i];\n            filteredVotingsCount ++;\n        }\n    }\n    // create new array for result\n    VotingItem[] memory result = new VotingItem[](filteredVotingsCount);\n    for (uint256 j = 0; j < filteredVotingsCount; j++) {\n        result[j] = filteredVotings[j];\n    }\n    return result;\n  }\n}",
  "sourcePath": "/Users/macbook/Documents/Paramadina/Blockchain/app/backend/contracts/Voting.sol",
  "compiler": {
    "name": "solc",
    "version": "0.8.19+commit.7dd6d404.Emscripten.clang"
  },
  "schemaVersion": "3.4.16",
  "updatedAt": "2023-10-03T17:59:29.537Z",
  "networkType": "ethereum",
  "devdoc": {
    "kind": "dev",
    "methods": {},
    "version": 1
  },
  "userdoc": {
    "kind": "user",
    "methods": {},
    "version": 1
  }
}