{
  "contractName": "Voting",
  "abi": [
    {
      "anonymous": false,
      "inputs": [
        {
          "indexed": false,
          "internalType": "bool",
          "name": "success",
          "type": "bool"
        }
      ],
      "name": "VotingResult",
      "type": "event"
    },
    {
      "inputs": [],
      "name": "voteIdActive",
      "outputs": [
        {
          "internalType": "uint256",
          "name": "",
          "type": "uint256"
        }
      ],
      "stateMutability": "view",
      "type": "function",
      "constant": true
    },
    {
      "inputs": [],
      "name": "voteNameActive",
      "outputs": [
        {
          "internalType": "string",
          "name": "",
          "type": "string"
        }
      ],
      "stateMutability": "view",
      "type": "function",
      "constant": true
    },
    {
      "inputs": [
        {
          "internalType": "uint256",
          "name": "",
          "type": "uint256"
        }
      ],
      "name": "voters",
      "outputs": [
        {
          "internalType": "uint256",
          "name": "voteId",
          "type": "uint256"
        },
        {
          "internalType": "uint256",
          "name": "userId",
          "type": "uint256"
        },
        {
          "internalType": "uint256",
          "name": "candidateId",
          "type": "uint256"
        }
      ],
      "stateMutability": "view",
      "type": "function",
      "constant": true
    },
    {
      "inputs": [
        {
          "internalType": "uint256",
          "name": "",
          "type": "uint256"
        }
      ],
      "name": "votings",
      "outputs": [
        {
          "internalType": "uint256",
          "name": "voteId",
          "type": "uint256"
        },
        {
          "internalType": "string",
          "name": "voteName",
          "type": "string"
        },
        {
          "internalType": "uint256",
          "name": "candidateId",
          "type": "uint256"
        },
        {
          "internalType": "string",
          "name": "candidateName",
          "type": "string"
        },
        {
          "internalType": "int256",
          "name": "voteTotal",
          "type": "int256"
        }
      ],
      "stateMutability": "view",
      "type": "function",
      "constant": true
    },
    {
      "inputs": [
        {
          "internalType": "uint256",
          "name": "_voteId",
          "type": "uint256"
        },
        {
          "internalType": "string",
          "name": "_voteName",
          "type": "string"
        },
        {
          "internalType": "uint256",
          "name": "_candidateId",
          "type": "uint256"
        },
        {
          "internalType": "string",
          "name": "_candidateName",
          "type": "string"
        }
      ],
      "name": "initVoting",
      "outputs": [],
      "stateMutability": "nonpayable",
      "type": "function"
    },
    {
      "inputs": [
        {
          "internalType": "uint256",
          "name": "_userId",
          "type": "uint256"
        },
        {
          "internalType": "uint256",
          "name": "_candidateId",
          "type": "uint256"
        }
      ],
      "name": "voteCandidate",
      "outputs": [],
      "stateMutability": "nonpayable",
      "type": "function"
    },
    {
      "inputs": [
        {
          "internalType": "uint256",
          "name": "_voteId",
          "type": "uint256"
        }
      ],
      "name": "getVoting",
      "outputs": [
        {
          "components": [
            {
              "internalType": "uint256",
              "name": "voteId",
              "type": "uint256"
            },
            {
              "internalType": "string",
              "name": "voteName",
              "type": "string"
            },
            {
              "internalType": "uint256",
              "name": "candidateId",
              "type": "uint256"
            },
            {
              "internalType": "string",
              "name": "candidateName",
              "type": "string"
            },
            {
              "internalType": "int256",
              "name": "voteTotal",
              "type": "int256"
            }
          ],
          "internalType": "struct Voting.VotingItem[]",
          "name": "",
          "type": "tuple[]"
        }
      ],
      "stateMutability": "view",
      "type": "function",
      "constant": true
    }
  ],
  "bytecode": "0x608060405234801561001057600080fd5b5061164e806100206000396000f3fe608060405234801561001057600080fd5b506004361061007d5760003560e01c80638a9a99771161005b5780638a9a9977146100ee578063a598d03c1461010a578063da58c7d91461013e578063eb1e6270146101705761007d565b80633afc7282146100825780634fb835d5146100b257806380dfe293146100d0575b600080fd5b61009c60048036038101906100979190610c7f565b61018c565b6040516100a99190610ea3565b60405180910390f35b6100ba610493565b6040516100c79190610ed4565b60405180910390f35b6100d8610499565b6040516100e59190610f39565b60405180910390f35b61010860048036038101906101039190611090565b610527565b005b610124600480360381019061011f9190610c7f565b61074f565b60405161013595949392919061113e565b60405180910390f35b61015860048036038101906101539190610c7f565b6108a5565b6040516101679392919061119f565b60405180910390f35b61018a600480360381019061018591906111d6565b6108df565b005b6060600060028054905067ffffffffffffffff8111156101af576101ae610f65565b5b6040519080825280602002602001820160405280156101e857816020015b6101d5610c06565b8152602001906001900390816101cd5790505b5090506000805b6002805490508110156103d757846002828154811061021157610210611216565b5b906000526020600020906005020160000154036103c4576002818154811061023c5761023b611216565b5b90600052602060002090600502016040518060a00160405290816000820154815260200160018201805461026f90611274565b80601f016020809104026020016040519081016040528092919081815260200182805461029b90611274565b80156102e85780601f106102bd576101008083540402835291602001916102e8565b820191906000526020600020905b8154815290600101906020018083116102cb57829003601f168201915b505050505081526020016002820154815260200160038201805461030b90611274565b80601f016020809104026020016040519081016040528092919081815260200182805461033790611274565b80156103845780601f1061035957610100808354040283529160200191610384565b820191906000526020600020905b81548152906001019060200180831161036757829003601f168201915b505050505081526020016004820154815250508383815181106103aa576103a9611216565b5b602002602001018190525081806103c0906112d4565b9250505b80806103cf906112d4565b9150506101ef565b5060008167ffffffffffffffff8111156103f4576103f3610f65565b5b60405190808252806020026020018201604052801561042d57816020015b61041a610c06565b8152602001906001900390816104125790505b50905060005b828110156104875783818151811061044e5761044d611216565b5b602002602001015182828151811061046957610468611216565b5b6020026020010181905250808061047f906112d4565b915050610433565b50809350505050919050565b60005481565b600180546104a690611274565b80601f01602080910402602001604051908101604052809291908181526020018280546104d290611274565b801561051f5780601f106104f45761010080835404028352916020019161051f565b820191906000526020600020905b81548152906001019060200180831161050257829003601f168201915b505050505081565b60008085600081905550846001908161054091906114c8565b5060005b6002805490508110156105d0576002818154811061056557610564611216565b5b9060005260206000209060050201600001546000541480156105ab57506002818154811061059657610595611216565b5b90600052602060002090600502016002015485145b156105bd5760019150600192506105d0565b80806105c8906112d4565b915050610544565b50600015158115150361070f5760006040518060a001604052806000548152602001600180546105ff90611274565b80601f016020809104026020016040519081016040528092919081815260200182805461062b90611274565b80156106785780601f1061064d57610100808354040283529160200191610678565b820191906000526020600020905b81548152906001019060200180831161065b57829003601f168201915b505050505081526020018681526020018581526020016000815250905060028190806001815401808255809150506001900390600052602060002090600502016000909190919091506000820151816000015560208201518160010190816106e091906114c8565b5060408201518160020155606082015181600301908161070091906114c8565b50608082015181600401555050505b7feea73f891f5517c6e64acd2a546dc62b9d9ade49ce474569bd46579f10241ff7821560405161073f91906115b5565b60405180910390a1505050505050565b6002818154811061075f57600080fd5b906000526020600020906005020160009150905080600001549080600101805461078890611274565b80601f01602080910402602001604051908101604052809291908181526020018280546107b490611274565b80156108015780601f106107d657610100808354040283529160200191610801565b820191906000526020600020905b8154815290600101906020018083116107e457829003601f168201915b50505050509080600201549080600301805461081c90611274565b80601f016020809104026020016040519081016040528092919081815260200182805461084890611274565b80156108955780601f1061086a57610100808354040283529160200191610895565b820191906000526020600020905b81548152906001019060200180831161087857829003601f168201915b5050505050908060040154905085565b600381815481106108b557600080fd5b90600052602060002090600302016000915090508060000154908060010154908060020154905083565b6000806000805b60028054905081101561096e576002818154811061090757610906611216565b5b90600052602060002090600502016000015460005414801561094d57506002818154811061093857610937611216565b5b90600052602060002090600502016002015485145b1561095b576001915061096e565b8080610966906112d4565b9150506108e6565b5060001515811515036109bf57600192507feea73f891f5517c6e64acd2a546dc62b9d9ade49ce474569bd46579f10241ff783156040516109af91906115b5565b60405180910390a1505050610c02565b60005b600380549050811015610a4e57600381815481106109e3576109e2611216565b5b906000526020600020906003020160000154600054148015610a2957508560038281548110610a1557610a14611216565b5b906000526020600020906003020160010154145b15610a3b576001925060019350610a4e565b8080610a46906112d4565b9150506109c2565b508115610a95577feea73f891f5517c6e64acd2a546dc62b9d9ade49ce474569bd46579f10241ff78315604051610a8591906115b5565b60405180910390a1505050610c02565b6000604051806060016040528060005481526020018781526020018681525090506003819080600181540180825580915050600190039060005260206000209060030201600090919091909150600082015181600001556020820151816001015560408201518160020155505060005b600280549050811015610bc45760028181548110610b2657610b25611216565b5b906000526020600020906005020160000154600054148015610b6c57508560028281548110610b5857610b57611216565b5b906000526020600020906005020160020154145b15610bb15760028181548110610b8557610b84611216565b5b90600052602060002090600502016004016000815480929190610ba7906115d0565b9190505550610bc4565b8080610bbc906112d4565b915050610b05565b507feea73f891f5517c6e64acd2a546dc62b9d9ade49ce474569bd46579f10241ff78415604051610bf591906115b5565b60405180910390a1505050505b5050565b6040518060a0016040528060008152602001606081526020016000815260200160608152602001600081525090565b6000604051905090565b600080fd5b600080fd5b6000819050919050565b610c5c81610c49565b8114610c6757600080fd5b50565b600081359050610c7981610c53565b92915050565b600060208284031215610c9557610c94610c3f565b5b6000610ca384828501610c6a565b91505092915050565b600081519050919050565b600082825260208201905092915050565b6000819050602082019050919050565b610ce181610c49565b82525050565b600081519050919050565b600082825260208201905092915050565b60005b83811015610d21578082015181840152602081019050610d06565b60008484015250505050565b6000601f19601f8301169050919050565b6000610d4982610ce7565b610d538185610cf2565b9350610d63818560208601610d03565b610d6c81610d2d565b840191505092915050565b6000819050919050565b610d8a81610d77565b82525050565b600060a083016000830151610da86000860182610cd8565b5060208301518482036020860152610dc08282610d3e565b9150506040830151610dd56040860182610cd8565b5060608301518482036060860152610ded8282610d3e565b9150506080830151610e026080860182610d81565b508091505092915050565b6000610e198383610d90565b905092915050565b6000602082019050919050565b6000610e3982610cac565b610e438185610cb7565b935083602082028501610e5585610cc8565b8060005b85811015610e915784840389528151610e728582610e0d565b9450610e7d83610e21565b925060208a01995050600181019050610e59565b50829750879550505050505092915050565b60006020820190508181036000830152610ebd8184610e2e565b905092915050565b610ece81610c49565b82525050565b6000602082019050610ee96000830184610ec5565b92915050565b600082825260208201905092915050565b6000610f0b82610ce7565b610f158185610eef565b9350610f25818560208601610d03565b610f2e81610d2d565b840191505092915050565b60006020820190508181036000830152610f538184610f00565b905092915050565b600080fd5b600080fd5b7f4e487b7100000000000000000000000000000000000000000000000000000000600052604160045260246000fd5b610f9d82610d2d565b810181811067ffffffffffffffff82111715610fbc57610fbb610f65565b5b80604052505050565b6000610fcf610c35565b9050610fdb8282610f94565b919050565b600067ffffffffffffffff821115610ffb57610ffa610f65565b5b61100482610d2d565b9050602081019050919050565b82818337600083830152505050565b600061103361102e84610fe0565b610fc5565b90508281526020810184848401111561104f5761104e610f60565b5b61105a848285611011565b509392505050565b600082601f83011261107757611076610f5b565b5b8135611087848260208601611020565b91505092915050565b600080600080608085870312156110aa576110a9610c3f565b5b60006110b887828801610c6a565b945050602085013567ffffffffffffffff8111156110d9576110d8610c44565b5b6110e587828801611062565b93505060406110f687828801610c6a565b925050606085013567ffffffffffffffff81111561111757611116610c44565b5b61112387828801611062565b91505092959194509250565b61113881610d77565b82525050565b600060a0820190506111536000830188610ec5565b81810360208301526111658187610f00565b90506111746040830186610ec5565b81810360608301526111868185610f00565b9050611195608083018461112f565b9695505050505050565b60006060820190506111b46000830186610ec5565b6111c16020830185610ec5565b6111ce6040830184610ec5565b949350505050565b600080604083850312156111ed576111ec610c3f565b5b60006111fb85828601610c6a565b925050602061120c85828601610c6a565b9150509250929050565b7f4e487b7100000000000000000000000000000000000000000000000000000000600052603260045260246000fd5b7f4e487b7100000000000000000000000000000000000000000000000000000000600052602260045260246000fd5b6000600282049050600182168061128c57607f821691505b60208210810361129f5761129e611245565b5b50919050565b7f4e487b7100000000000000000000000000000000000000000000000000000000600052601160045260246000fd5b60006112df82610c49565b91507fffffffffffffffffffffffffffffffffffffffffffffffffffffffffffffffff8203611311576113106112a5565b5b600182019050919050565b60008190508160005260206000209050919050565b60006020601f8301049050919050565b600082821b905092915050565b60006008830261137e7fffffffffffffffffffffffffffffffffffffffffffffffffffffffffffffffff82611341565b6113888683611341565b95508019841693508086168417925050509392505050565b6000819050919050565b60006113c56113c06113bb84610c49565b6113a0565b610c49565b9050919050565b6000819050919050565b6113df836113aa565b6113f36113eb826113cc565b84845461134e565b825550505050565b600090565b6114086113fb565b6114138184846113d6565b505050565b5b818110156114375761142c600082611400565b600181019050611419565b5050565b601f82111561147c5761144d8161131c565b61145684611331565b81016020851015611465578190505b61147961147185611331565b830182611418565b50505b505050565b600082821c905092915050565b600061149f60001984600802611481565b1980831691505092915050565b60006114b8838361148e565b9150826002028217905092915050565b6114d182610ce7565b67ffffffffffffffff8111156114ea576114e9610f65565b5b6114f48254611274565b6114ff82828561143b565b600060209050601f8311600181146115325760008415611520578287015190505b61152a85826114ac565b865550611592565b601f1984166115408661131c565b60005b8281101561156857848901518255600182019150602085019450602081019050611543565b868310156115855784890151611581601f89168261148e565b8355505b6001600288020188555050505b505050505050565b60008115159050919050565b6115af8161159a565b82525050565b60006020820190506115ca60008301846115a6565b92915050565b60006115db82610d77565b91507f7fffffffffffffffffffffffffffffffffffffffffffffffffffffffffffffff820361160d5761160c6112a5565b5b60018201905091905056fea2646970667358221220bf755c66cd4e10e5a2494f48f2f4d4f3efd714ab069668421faa7946b4c16f5764736f6c63430008130033",
  "immutableReferences": {},
  "source": "pragma solidity ^0.8.19;\ncontract Voting {\n  uint public voteIdActive;\n  string public voteNameActive;\n  struct VotingItem {\n    uint voteId;\n    string voteName;\n    uint candidateId;\n    string candidateName;\n    int voteTotal;\n  }\n  VotingItem[] public votings;\n  struct VoterItem {\n    uint voteId;\n    uint userId;\n    uint candidateId;\n  }\n  VoterItem[] public voters;\n\n  event VotingResult(bool success);\n\n  // init voting app (activated vote id and create candidate)\n  function initVoting(uint _voteId, string memory _voteName, uint _candidateId, string memory _candidateName) public {\n    bool isError = false;\n    bool candidateIdExixts = false;\n    voteIdActive = _voteId;\n    voteNameActive = _voteName;\n    for (uint256 i = 0; i < votings.length; i++) {\n      if(voteIdActive == votings[i].voteId && _candidateId == votings[i].candidateId){\n        candidateIdExixts = true;\n        isError = true;\n        break;\n      }\n    }\n    if(candidateIdExixts == false){\n      VotingItem memory newVotingCandidate = VotingItem(voteIdActive, voteNameActive, _candidateId, _candidateName, 0);\n      votings.push(newVotingCandidate);\n    }\n    emit VotingResult(!isError);\n  }\n\n  function voteCandidate(uint _userId, uint _candidateId) public {\n    bool isError = false;\n    bool voterExists = false;\n    bool candidateIdExixts = false;\n\n    // checking candidate id\n    for (uint256 i = 0; i < votings.length; i++) {\n      if(voteIdActive == votings[i].voteId && _candidateId == votings[i].candidateId){\n        candidateIdExixts = true;\n        break;\n      }\n    }\n    if(candidateIdExixts == false){\n      isError = true;\n      emit VotingResult(!isError);\n      return;\n    }\n\n    // checking is user already voted\n    for (uint256 i = 0; i < voters.length; i++) {\n      if(voteIdActive == voters[i].voteId && voters[i].userId == _userId){\n        voterExists = true;\n        isError = true;\n        break;\n      }\n    }\n    if(voterExists){\n      emit VotingResult(!isError);\n      return;\n    }\n    VoterItem memory newVoter = VoterItem(voteIdActive, _userId, _candidateId);\n    voters.push(newVoter);\n\n    // voting processing\n    for (uint256 i = 0; i < votings.length; i++) {\n      if(voteIdActive == votings[i].voteId && votings[i].candidateId == _candidateId){\n        votings[i].voteTotal ++;\n        break;\n      }\n    }\n    emit VotingResult(!isError);\n  }\n\n  \n  function getVoting(uint _voteId) public view returns (VotingItem[] memory) {\n    VotingItem[] memory filteredVotings = new VotingItem[](votings.length);\n    uint256 filteredVotingsCount = 0;\n    // filtering vote data\n    for (uint256 i = 0; i < votings.length; i++) {\n        if (votings[i].voteId == _voteId) {\n            filteredVotings[filteredVotingsCount] = votings[i];\n            filteredVotingsCount ++;\n        }\n    }\n    // create new array for result\n    VotingItem[] memory result = new VotingItem[](filteredVotingsCount);\n    for (uint256 j = 0; j < filteredVotingsCount; j++) {\n        result[j] = filteredVotings[j];\n    }\n    return result;\n  }\n}",
  "sourcePath": "/Users/macbook/Documents/Paramadina/Blockchain/app/backend/contracts/Voting.sol",
  "compiler": {
    "name": "solc",
    "version": "0.8.19+commit.7dd6d404.Emscripten.clang"
  },
  "schemaVersion": "3.4.16",
  "updatedAt": "2023-10-05T14:06:13.772Z",
  "networkType": "ethereum",
  "devdoc": {
    "kind": "dev",
    "methods": {},
    "version": 1
  },
  "userdoc": {
    "kind": "user",
    "methods": {},
    "version": 1
  }
}